{
  "contractName": "Depinterest",
  "abi": [
    {
      "inputs": [],
      "stateMutability": "nonpayable",
      "type": "constructor"
    },
    {
      "anonymous": false,
      "inputs": [
        {
          "indexed": true,
          "internalType": "uint256",
          "name": "id",
          "type": "uint256"
        },
        {
          "indexed": true,
          "internalType": "string",
          "name": "url",
          "type": "string"
        },
        {
          "indexed": true,
          "internalType": "string",
          "name": "description",
          "type": "string"
        },
        {
          "indexed": false,
          "internalType": "address",
          "name": "author",
          "type": "address"
        }
      ],
      "name": "ImageCreated",
      "type": "event"
    },
    {
      "anonymous": false,
      "inputs": [
        {
          "indexed": true,
          "internalType": "uint256",
          "name": "id",
          "type": "uint256"
        },
        {
          "indexed": true,
          "internalType": "string",
          "name": "url",
          "type": "string"
        },
        {
          "indexed": true,
          "internalType": "string",
          "name": "description",
          "type": "string"
        },
        {
          "indexed": false,
          "internalType": "uint256",
          "name": "tip",
          "type": "uint256"
        },
        {
          "indexed": false,
          "internalType": "address",
          "name": "author",
          "type": "address"
        }
      ],
      "name": "ImageTipped",
      "type": "event"
    },
    {
      "anonymous": false,
      "inputs": [
        {
          "indexed": true,
          "internalType": "address",
          "name": "previousOwner",
          "type": "address"
        },
        {
          "indexed": true,
          "internalType": "address",
          "name": "newOwner",
          "type": "address"
        }
      ],
      "name": "OwnershipTransferred",
      "type": "event"
    },
    {
      "anonymous": false,
      "inputs": [
        {
          "indexed": false,
          "internalType": "address",
          "name": "account",
          "type": "address"
        }
      ],
      "name": "Paused",
      "type": "event"
    },
    {
      "anonymous": false,
      "inputs": [
        {
          "indexed": false,
          "internalType": "address",
          "name": "account",
          "type": "address"
        }
      ],
      "name": "Unpaused",
      "type": "event"
    },
    {
      "inputs": [
        {
          "internalType": "uint256",
          "name": "",
          "type": "uint256"
        }
      ],
      "name": "idList",
      "outputs": [
        {
          "internalType": "uint256",
          "name": "",
          "type": "uint256"
        }
      ],
      "stateMutability": "view",
      "type": "function",
      "constant": true
    },
    {
      "inputs": [],
      "name": "idListLength",
      "outputs": [
        {
          "internalType": "uint256",
          "name": "",
          "type": "uint256"
        }
      ],
      "stateMutability": "view",
      "type": "function",
      "constant": true
    },
    {
      "inputs": [
        {
          "internalType": "uint256",
          "name": "",
          "type": "uint256"
        }
      ],
      "name": "images",
      "outputs": [
        {
          "internalType": "uint256",
          "name": "id",
          "type": "uint256"
        },
        {
          "internalType": "string",
          "name": "url",
          "type": "string"
        },
        {
          "internalType": "string",
          "name": "description",
          "type": "string"
        },
        {
          "internalType": "uint256",
          "name": "totalTip",
          "type": "uint256"
        },
        {
          "internalType": "address payable",
          "name": "author",
          "type": "address"
        }
      ],
      "stateMutability": "view",
      "type": "function",
      "constant": true
    },
    {
      "inputs": [],
      "name": "owner",
      "outputs": [
        {
          "internalType": "address",
          "name": "",
          "type": "address"
        }
      ],
      "stateMutability": "view",
      "type": "function",
      "constant": true
    },
    {
      "inputs": [],
      "name": "paused",
      "outputs": [
        {
          "internalType": "bool",
          "name": "",
          "type": "bool"
        }
      ],
      "stateMutability": "view",
      "type": "function",
      "constant": true
    },
    {
      "inputs": [],
      "name": "renounceOwnership",
      "outputs": [],
      "stateMutability": "nonpayable",
      "type": "function"
    },
    {
      "inputs": [
        {
          "internalType": "address",
          "name": "newOwner",
          "type": "address"
        }
      ],
      "name": "transferOwnership",
      "outputs": [],
      "stateMutability": "nonpayable",
      "type": "function"
    },
    {
      "inputs": [
        {
          "internalType": "string",
          "name": "_imgUrl",
          "type": "string"
        },
        {
          "internalType": "string",
          "name": "_imgDescription",
          "type": "string"
        }
      ],
      "name": "uploadImage",
      "outputs": [],
      "stateMutability": "nonpayable",
      "type": "function"
    },
    {
      "inputs": [
        {
          "internalType": "uint256",
          "name": "_id",
          "type": "uint256"
        }
      ],
      "name": "tipImageOwner",
      "outputs": [],
      "stateMutability": "payable",
      "type": "function",
      "payable": true
    },
    {
      "inputs": [],
      "name": "withdraw",
      "outputs": [],
      "stateMutability": "nonpayable",
      "type": "function"
    },
    {
      "inputs": [],
      "name": "pause",
      "outputs": [],
      "stateMutability": "nonpayable",
      "type": "function"
    },
    {
      "inputs": [],
      "name": "unpause",
      "outputs": [],
      "stateMutability": "nonpayable",
      "type": "function"
    }
  ],
  "bytecode": "0x6080604052600060025534801561001557600080fd5b5061003261002761005860201b60201c565b61006060201b60201c565b60008060146101000a81548160ff02191690831515021790555060018081905550610124565b600033905090565b60008060009054906101000a900473ffffffffffffffffffffffffffffffffffffffff169050816000806101000a81548173ffffffffffffffffffffffffffffffffffffffff021916908373ffffffffffffffffffffffffffffffffffffffff1602179055508173ffffffffffffffffffffffffffffffffffffffff168173ffffffffffffffffffffffffffffffffffffffff167f8be0079c531659141344cd1fd0a4f28419497f9722a3daafe3b4186f6b6457e060405160405180910390a35050565b611c52806101336000396000f3fe6080604052600436106100a75760003560e01c80638456cb59116100645780638456cb5914610184578063848564821461019b5780638567ade8146101dc5780638da5cb5b146101f8578063a91b831414610223578063f2fde38b1461024c576100a7565b80633ccfd60b146100ac5780633f4ba83a146100c35780635c975abb146100da5780636313531f146101055780636386cd1714610142578063715018a61461016d575b600080fd5b3480156100b857600080fd5b506100c1610275565b005b3480156100cf57600080fd5b506100d86103f5565b005b3480156100e657600080fd5b506100ef61047b565b6040516100fc9190611158565b60405180910390f35b34801561011157600080fd5b5061012c600480360381019061012791906111bd565b610491565b60405161013991906111f9565b60405180910390f35b34801561014e57600080fd5b506101576104b5565b60405161016491906111f9565b60405180910390f35b34801561017957600080fd5b506101826104bb565b005b34801561019057600080fd5b50610199610543565b005b3480156101a757600080fd5b506101c260048036038101906101bd91906111bd565b6105c9565b6040516101d39594939291906112ee565b60405180910390f35b6101f660048036038101906101f191906111bd565b61072f565b005b34801561020457600080fd5b5061020d610abe565b60405161021a9190611370565b60405180910390f35b34801561022f57600080fd5b5061024a600480360381019061024591906114c0565b610ae7565b005b34801561025857600080fd5b50610273600480360381019061026e9190611564565b610d92565b005b61027d610e8a565b73ffffffffffffffffffffffffffffffffffffffff1661029b610abe565b73ffffffffffffffffffffffffffffffffffffffff16146102f1576040517f08c379a00000000000000000000000000000000000000000000000000000000081526004016102e8906115dd565b60405180910390fd5b60026001541415610337576040517f08c379a000000000000000000000000000000000000000000000000000000000815260040161032e90611649565b60405180910390fd5b600260018190555060003373ffffffffffffffffffffffffffffffffffffffff16476040516103659061169a565b60006040518083038185875af1925050503d80600081146103a2576040519150601f19603f3d011682016040523d82523d6000602084013e6103a7565b606091505b50509050806103eb576040517f08c379a00000000000000000000000000000000000000000000000000000000081526004016103e2906116fb565b60405180910390fd5b5060018081905550565b6103fd610e8a565b73ffffffffffffffffffffffffffffffffffffffff1661041b610abe565b73ffffffffffffffffffffffffffffffffffffffff1614610471576040517f08c379a0000000000000000000000000000000000000000000000000000000008152600401610468906115dd565b60405180910390fd5b610479610e92565b565b60008060149054906101000a900460ff16905090565b600381815481106104a157600080fd5b906000526020600020016000915090505481565b60045481565b6104c3610e8a565b73ffffffffffffffffffffffffffffffffffffffff166104e1610abe565b73ffffffffffffffffffffffffffffffffffffffff1614610537576040517f08c379a000000000000000000000000000000000000000000000000000000000815260040161052e906115dd565b60405180910390fd5b6105416000610f33565b565b61054b610e8a565b73ffffffffffffffffffffffffffffffffffffffff16610569610abe565b73ffffffffffffffffffffffffffffffffffffffff16146105bf576040517f08c379a00000000000000000000000000000000000000000000000000000000081526004016105b6906115dd565b60405180910390fd5b6105c7610ff7565b565b60056020528060005260406000206000915090508060000154908060010180546105f29061174a565b80601f016020809104026020016040519081016040528092919081815260200182805461061e9061174a565b801561066b5780601f106106405761010080835404028352916020019161066b565b820191906000526020600020905b81548152906001019060200180831161064e57829003601f168201915b5050505050908060020180546106809061174a565b80601f01602080910402602001604051908101604052809291908181526020018280546106ac9061174a565b80156106f95780601f106106ce576101008083540402835291602001916106f9565b820191906000526020600020905b8154815290600101906020018083116106dc57829003601f168201915b5050505050908060030154908060040160009054906101000a900473ffffffffffffffffffffffffffffffffffffffff16905085565b8060008111801561074257506002548111155b610781576040517f08c379a0000000000000000000000000000000000000000000000000000000008152600401610778906117c8565b60405180910390fd5b6000600560008481526020019081526020016000206040518060a0016040529081600082015481526020016001820180546107bb9061174a565b80601f01602080910402602001604051908101604052809291908181526020018280546107e79061174a565b80156108345780601f1061080957610100808354040283529160200191610834565b820191906000526020600020905b81548152906001019060200180831161081757829003601f168201915b5050505050815260200160028201805461084d9061174a565b80601f01602080910402602001604051908101604052809291908181526020018280546108799061174a565b80156108c65780601f1061089b576101008083540402835291602001916108c6565b820191906000526020600020905b8154815290600101906020018083116108a957829003601f168201915b50505050508152602001600382015481526020016004820160009054906101000a900473ffffffffffffffffffffffffffffffffffffffff1673ffffffffffffffffffffffffffffffffffffffff1673ffffffffffffffffffffffffffffffffffffffff168152505090506000816080015190508073ffffffffffffffffffffffffffffffffffffffff166108fc349081150290604051600060405180830381858888f19350505050158015610980573d6000803e3d6000fd5b503482606001516109919190611817565b82606001818152505081600560008681526020019081526020016000206000820151816000015560208201518160010190805190602001906109d492919061109a565b5060408201518160020190805190602001906109f192919061109a565b506060820151816003015560808201518160040160006101000a81548173ffffffffffffffffffffffffffffffffffffffff021916908373ffffffffffffffffffffffffffffffffffffffff1602179055509050508160400151604051610a5891906118a9565b60405180910390208260200151604051610a7291906118a9565b6040518091039020857f1be5317bca8d3f70dc1efe89958be71bff36cdca33fc00a6423e25eb2f1d492f856060015185604051610ab092919061191f565b60405180910390a450505050565b60008060009054906101000a900473ffffffffffffffffffffffffffffffffffffffff16905090565b806000815111610b2c576040517f08c379a0000000000000000000000000000000000000000000000000000000008152600401610b23906119ba565b60405180910390fd5b826000815111610b71576040517f08c379a0000000000000000000000000000000000000000000000000000000008152600401610b6890611a26565b60405180910390fd5b600073ffffffffffffffffffffffffffffffffffffffff163373ffffffffffffffffffffffffffffffffffffffff161415610be1576040517f08c379a0000000000000000000000000000000000000000000000000000000008152600401610bd890611a92565b60405180910390fd5b60006001600254610bf29190611817565b905060006040518060a00160405280838152602001878152602001868152602001600081526020013373ffffffffffffffffffffffffffffffffffffffff168152509050816002819055506003829080600181540180825580915050600190039060005260206000200160009091909190915055600380549050600481905550806005600083600001518152602001908152602001600020600082015181600001556020820151816001019080519060200190610cb092919061109a565b506040820151816002019080519060200190610ccd92919061109a565b506060820151816003015560808201518160040160006101000a81548173ffffffffffffffffffffffffffffffffffffffff021916908373ffffffffffffffffffffffffffffffffffffffff16021790555090505084604051610d3091906118a9565b604051809103902086604051610d4691906118a9565b604051809103902082600001517fb82a9f3a70bc97d2ca962d6c417b770c2158b2014d3f028d4de74b315692d4c733604051610d829190611370565b60405180910390a4505050505050565b610d9a610e8a565b73ffffffffffffffffffffffffffffffffffffffff16610db8610abe565b73ffffffffffffffffffffffffffffffffffffffff1614610e0e576040517f08c379a0000000000000000000000000000000000000000000000000000000008152600401610e05906115dd565b60405180910390fd5b600073ffffffffffffffffffffffffffffffffffffffff168173ffffffffffffffffffffffffffffffffffffffff161415610e7e576040517f08c379a0000000000000000000000000000000000000000000000000000000008152600401610e7590611b24565b60405180910390fd5b610e8781610f33565b50565b600033905090565b610e9a61047b565b610ed9576040517f08c379a0000000000000000000000000000000000000000000000000000000008152600401610ed090611b90565b60405180910390fd5b60008060146101000a81548160ff0219169083151502179055507f5db9ee0a495bf2e6ff9c91a7834c1ba4fdd244a5e8aa4e537bd38aeae4b073aa610f1c610e8a565b604051610f299190611370565b60405180910390a1565b60008060009054906101000a900473ffffffffffffffffffffffffffffffffffffffff169050816000806101000a81548173ffffffffffffffffffffffffffffffffffffffff021916908373ffffffffffffffffffffffffffffffffffffffff1602179055508173ffffffffffffffffffffffffffffffffffffffff168173ffffffffffffffffffffffffffffffffffffffff167f8be0079c531659141344cd1fd0a4f28419497f9722a3daafe3b4186f6b6457e060405160405180910390a35050565b610fff61047b565b1561103f576040517f08c379a000000000000000000000000000000000000000000000000000000000815260040161103690611bfc565b60405180910390fd5b6001600060146101000a81548160ff0219169083151502179055507f62e78cea01bee320cd4e420270b5ea74000d11b0c9f74754ebdbfc544b05a258611083610e8a565b6040516110909190611370565b60405180910390a1565b8280546110a69061174a565b90600052602060002090601f0160209004810192826110c8576000855561110f565b82601f106110e157805160ff191683800117855561110f565b8280016001018555821561110f579182015b8281111561110e5782518255916020019190600101906110f3565b5b50905061111c9190611120565b5090565b5b80821115611139576000816000905550600101611121565b5090565b60008115159050919050565b6111528161113d565b82525050565b600060208201905061116d6000830184611149565b92915050565b6000604051905090565b600080fd5b600080fd5b6000819050919050565b61119a81611187565b81146111a557600080fd5b50565b6000813590506111b781611191565b92915050565b6000602082840312156111d3576111d261117d565b5b60006111e1848285016111a8565b91505092915050565b6111f381611187565b82525050565b600060208201905061120e60008301846111ea565b92915050565b600081519050919050565b600082825260208201905092915050565b60005b8381101561124e578082015181840152602081019050611233565b8381111561125d576000848401525b50505050565b6000601f19601f8301169050919050565b600061127f82611214565b611289818561121f565b9350611299818560208601611230565b6112a281611263565b840191505092915050565b600073ffffffffffffffffffffffffffffffffffffffff82169050919050565b60006112d8826112ad565b9050919050565b6112e8816112cd565b82525050565b600060a08201905061130360008301886111ea565b81810360208301526113158187611274565b905081810360408301526113298186611274565b905061133860608301856111ea565b61134560808301846112df565b9695505050505050565b600061135a826112ad565b9050919050565b61136a8161134f565b82525050565b60006020820190506113856000830184611361565b92915050565b600080fd5b600080fd5b7f4e487b7100000000000000000000000000000000000000000000000000000000600052604160045260246000fd5b6113cd82611263565b810181811067ffffffffffffffff821117156113ec576113eb611395565b5b80604052505050565b60006113ff611173565b905061140b82826113c4565b919050565b600067ffffffffffffffff82111561142b5761142a611395565b5b61143482611263565b9050602081019050919050565b82818337600083830152505050565b600061146361145e84611410565b6113f5565b90508281526020810184848401111561147f5761147e611390565b5b61148a848285611441565b509392505050565b600082601f8301126114a7576114a661138b565b5b81356114b7848260208601611450565b91505092915050565b600080604083850312156114d7576114d661117d565b5b600083013567ffffffffffffffff8111156114f5576114f4611182565b5b61150185828601611492565b925050602083013567ffffffffffffffff81111561152257611521611182565b5b61152e85828601611492565b9150509250929050565b6115418161134f565b811461154c57600080fd5b50565b60008135905061155e81611538565b92915050565b60006020828403121561157a5761157961117d565b5b60006115888482850161154f565b91505092915050565b7f4f776e61626c653a2063616c6c6572206973206e6f7420746865206f776e6572600082015250565b60006115c760208361121f565b91506115d282611591565b602082019050919050565b600060208201905081810360008301526115f6816115ba565b9050919050565b7f5265656e7472616e637947756172643a207265656e7472616e742063616c6c00600082015250565b6000611633601f8361121f565b915061163e826115fd565b602082019050919050565b6000602082019050818103600083015261166281611626565b9050919050565b600081905092915050565b50565b6000611684600083611669565b915061168f82611674565b600082019050919050565b60006116a582611677565b9150819050919050565b7f4661696c656420746f2073656e64204574686572000000000000000000000000600082015250565b60006116e560148361121f565b91506116f0826116af565b602082019050919050565b60006020820190508181036000830152611714816116d8565b9050919050565b7f4e487b7100000000000000000000000000000000000000000000000000000000600052602260045260246000fd5b6000600282049050600182168061176257607f821691505b602082108114156117765761177561171b565b5b50919050565b7f496d61676520696420697320696e76616c69642e000000000000000000000000600082015250565b60006117b260148361121f565b91506117bd8261177c565b602082019050919050565b600060208201905081810360008301526117e1816117a5565b9050919050565b7f4e487b7100000000000000000000000000000000000000000000000000000000600052601160045260246000fd5b600061182282611187565b915061182d83611187565b9250827fffffffffffffffffffffffffffffffffffffffffffffffffffffffffffffffff03821115611862576118616117e8565b5b828201905092915050565b600081905092915050565b600061188382611214565b61188d818561186d565b935061189d818560208601611230565b80840191505092915050565b60006118b58284611878565b915081905092915050565b6000819050919050565b60006118e56118e06118db846112ad565b6118c0565b6112ad565b9050919050565b60006118f7826118ca565b9050919050565b6000611909826118ec565b9050919050565b611919816118fe565b82525050565b600060408201905061193460008301856111ea565b6119416020830184611910565b9392505050565b7f496d6167652073686f756c64206861766520736f6d652064657363726970746960008201527f6f6e2e0000000000000000000000000000000000000000000000000000000000602082015250565b60006119a460238361121f565b91506119af82611948565b604082019050919050565b600060208201905081810360008301526119d381611997565b9050919050565b7f496d6167652055726c2073686f756c6420657869737400000000000000000000600082015250565b6000611a1060168361121f565b9150611a1b826119da565b602082019050919050565b60006020820190508181036000830152611a3f81611a03565b9050919050565b7f53656e64657220616464726573732063616e6e6f742062652030000000000000600082015250565b6000611a7c601a8361121f565b9150611a8782611a46565b602082019050919050565b60006020820190508181036000830152611aab81611a6f565b9050919050565b7f4f776e61626c653a206e6577206f776e657220697320746865207a65726f206160008201527f6464726573730000000000000000000000000000000000000000000000000000602082015250565b6000611b0e60268361121f565b9150611b1982611ab2565b604082019050919050565b60006020820190508181036000830152611b3d81611b01565b9050919050565b7f5061757361626c653a206e6f7420706175736564000000000000000000000000600082015250565b6000611b7a60148361121f565b9150611b8582611b44565b602082019050919050565b60006020820190508181036000830152611ba981611b6d565b9050919050565b7f5061757361626c653a2070617573656400000000000000000000000000000000600082015250565b6000611be660108361121f565b9150611bf182611bb0565b602082019050919050565b60006020820190508181036000830152611c1581611bd9565b905091905056fea2646970667358221220a9d4e7547059c1a48274ad151d1b81257fea199ea0e1fa0db7d2a9fb8f15d0f764736f6c634300080a0033",
  "immutableReferences": {},
  "source": "// SPDX-License-Identifier: MIT\npragma solidity >=0.8.0;\n\nimport \"@openzeppelin/contracts/access/Ownable.sol\";\nimport \"@openzeppelin/contracts/security/Pausable.sol\";\nimport \"@openzeppelin/contracts/security/ReentrancyGuard.sol\";\n\n/// @title Contract for decentralized image sharing\n/// @author Abhishek Somani\n/// @notice Allows an user to tip an image\ncontract Depinterest is Ownable, Pausable, ReentrancyGuard {\n    /// @dev Tracks given image ids. Current value is the newest image id.\n    uint256 private imageIdCounter = 0;\n\n\n    /// @notice Image structu that captures all the necessary information about an image.\n    struct Image {\n        uint256 id;\n        string url;\n        string description;\n        uint256 totalTip;\n        address payable author;\n    }\n\n    /// @notice Checks if the id is valid or not\n    modifier isValidId(uint _id) {\n        // Make sure the id is valid\n        require(_id > 0 && _id <= imageIdCounter, \"Image id is invalid.\");\n        _;\n    }\n\n    /// @notice Checks if the image description is non-empty\n    modifier isValidDescription(string memory _imgDescription) {\n        // Make sure the image description exists\n        require(bytes(_imgDescription).length > 0, \"Image should have some description.\");\n        _;\n    }\n\n    /// @notice Checks if the image url is non-empty\n    modifier isValidUrl(string memory _imgUrl) {\n        // Make sure the image url exists\n        require(bytes(_imgUrl).length > 0, \"Image Url should exist\");\n        _;\n    }\n\n    /// @notice List of all iamge ids.\n    /// @dev Used as a helper when iterating available images in frontend client.\n    uint256[] public idList;\n\n    /// @notice idList length.\n    /// @dev Used as a helper when iterating available images in frontend client.\n    uint256 public idListLength;\n\n    /// image id -> Image mapping\n    mapping(uint256 => Image) public images;\n\n    /// @notice Emitted when an image is created\n    /// @param id Image id\n    /// @param url IPFS Url of the image\n    /// @param description Description of the image\n    /// @param author Author of the image with image id = id\n    event ImageCreated(\n        uint256 indexed id,\n        string indexed url,\n        string indexed description,\n        address author\n    );\n\n    /// @notice Emitted when a new image is tipped\n    /// @param id Image id\n    /// @param url IPFS Url of the image\n    /// @param description Description of the image\n    /// @param tip Amount tipped to this image\n    /// @param author Author of the image with image id = id\n    event ImageTipped(\n        uint256 indexed id,\n        string indexed url,\n        string indexed description,\n        uint256 tip,\n        address author\n    );\n\n    constructor() {}\n\n    /// @notice Uploads an image to IPFS\n    /// @param _imgUrl Url of the image\n    /// @param _imgDescription Description of the image\n    function uploadImage(string memory _imgUrl, string memory _imgDescription) public\n        isValidDescription(_imgDescription)\n        isValidUrl(_imgUrl)\n    {\n        // Make sure uploader address exists\n        require(msg.sender != address(0), \"Sender address cannot be 0\");\n\n        // Increment image id\n        uint256 newImageId = imageIdCounter + 1;\n\n        // Creates a new image\n        Image memory img = Image({\n            id: newImageId,\n            url: _imgUrl,\n            description: _imgDescription,\n            totalTip: 0,\n            author: payable(msg.sender)\n        });\n\n        // Counter is set to the new image id\n        imageIdCounter = newImageId;\n        // Push the new image id in the Id list\n        idList.push(newImageId);\n        // Update the length of the list\n        idListLength = idList.length;\n        // Assign the image in the images list\n        images[img.id] = img;\n        // Trigger an Image Created event\n        emit ImageCreated(img.id, _imgUrl, _imgDescription, msg.sender);\n    }\n\n    /// @notice Tips the image owner\n    /// @param _id Id of the image to be tipped\n    function tipImageOwner(uint256 _id) public payable isValidId(_id) {\n        // Fetch the image\n        Image memory _image = images[_id];\n        // Fetch the author\n        address payable _author = _image.author;\n        // Pay the author by sending them Ether\n        _author.transfer(msg.value);\n        // Increment the tip amount\n        _image.totalTip = _image.totalTip + msg.value;\n        // Update the image\n        images[_id] = _image;\n        // Trigger an Image Tipped event\n        emit ImageTipped(_id, _image.url, _image.description, _image.totalTip, _author);\n    }\n\n    /// @notice Withdraw contract's balance to the owner's address\n    /// @dev The function will revert if the send wasn't successful\n    function withdraw() public onlyOwner nonReentrant {\n        (bool sent, ) = msg.sender.call{value: address(this).balance}(\"\");\n        require(sent, \"Failed to send Ether\");\n    }\n\n    /// @notice pause the contract -- the contract will start functioning in read-only mode.\n    /// @dev Implementing the circuit breaker pattern\n    function pause() public onlyOwner {\n        Pausable._pause();\n    }\n\n    /// @notice resume the contract for both reads and writes\n    /// @dev Implementing the circuit breaker pattern\n    function unpause() public onlyOwner {\n        Pausable._unpause();\n    }\n}\n",
  "sourcePath": "/Users/absomani/Documents/Blockchain/Ingram/contracts/Depinterest.sol",
  "compiler": {
    "name": "solc",
    "version": "0.8.10+commit.fc410830.Emscripten.clang"
  },
  "schemaVersion": "3.4.3",
  "updatedAt": "2021-11-22T17:04:09.236Z",
  "networkType": "ethereum",
  "devdoc": {
    "author": "Abhishek Somani",
    "events": {
      "ImageCreated(uint256,string,string,address)": {
        "params": {
          "author": "Author of the image with image id = id",
          "description": "Description of the image",
          "id": "Image id",
          "url": "IPFS Url of the image"
        }
      },
      "ImageTipped(uint256,string,string,uint256,address)": {
        "params": {
          "author": "Author of the image with image id = id",
          "description": "Description of the image",
          "id": "Image id",
          "tip": "Amount tipped to this image",
          "url": "IPFS Url of the image"
        }
      }
    },
    "kind": "dev",
    "methods": {
      "owner()": {
        "details": "Returns the address of the current owner."
      },
      "pause()": {
        "details": "Implementing the circuit breaker pattern"
      },
      "paused()": {
        "details": "Returns true if the contract is paused, and false otherwise."
      },
      "renounceOwnership()": {
        "details": "Leaves the contract without owner. It will not be possible to call `onlyOwner` functions anymore. Can only be called by the current owner. NOTE: Renouncing ownership will leave the contract without an owner, thereby removing any functionality that is only available to the owner."
      },
      "tipImageOwner(uint256)": {
        "params": {
          "_id": "Id of the image to be tipped"
        }
      },
      "transferOwnership(address)": {
        "details": "Transfers ownership of the contract to a new account (`newOwner`). Can only be called by the current owner."
      },
      "unpause()": {
        "details": "Implementing the circuit breaker pattern"
      },
      "uploadImage(string,string)": {
        "params": {
          "_imgDescription": "Description of the image",
          "_imgUrl": "Url of the image"
        }
      },
      "withdraw()": {
        "details": "The function will revert if the send wasn't successful"
      }
    },
    "stateVariables": {
      "idList": {
        "details": "Used as a helper when iterating available images in frontend client."
      },
      "idListLength": {
        "details": "Used as a helper when iterating available images in frontend client."
      },
      "imageIdCounter": {
        "details": "Tracks given image ids. Current value is the newest image id."
      }
    },
    "title": "Contract for decentralized image sharing",
    "version": 1
  },
  "userdoc": {
    "events": {
      "ImageCreated(uint256,string,string,address)": {
        "notice": "Emitted when an image is created"
      },
      "ImageTipped(uint256,string,string,uint256,address)": {
        "notice": "Emitted when a new image is tipped"
      }
    },
    "kind": "user",
    "methods": {
      "idList(uint256)": {
        "notice": "List of all iamge ids."
      },
      "idListLength()": {
        "notice": "idList length."
      },
      "images(uint256)": {
        "notice": "image id -> Image mapping"
      },
      "pause()": {
        "notice": "pause the contract -- the contract will start functioning in read-only mode."
      },
      "tipImageOwner(uint256)": {
        "notice": "Tips the image owner"
      },
      "unpause()": {
        "notice": "resume the contract for both reads and writes"
      },
      "uploadImage(string,string)": {
        "notice": "Uploads an image to IPFS"
      },
      "withdraw()": {
        "notice": "Withdraw contract's balance to the owner's address"
      }
    },
    "notice": "Allows an user to tip an image",
    "version": 1
  }
}