{
  "contractName": "Depinterest",
  "abi": [
    {
      "inputs": [],
      "stateMutability": "nonpayable",
      "type": "constructor"
    },
    {
      "anonymous": false,
      "inputs": [
        {
          "indexed": true,
          "internalType": "uint256",
          "name": "id",
          "type": "uint256"
        },
        {
          "indexed": false,
          "internalType": "address",
          "name": "from",
          "type": "address"
        },
        {
          "indexed": false,
          "internalType": "address",
          "name": "to",
          "type": "address"
        },
        {
          "indexed": false,
          "internalType": "uint256",
          "name": "amount",
          "type": "uint256"
        }
      ],
      "name": "ImageTipTransferFailed",
      "type": "event"
    },
    {
      "anonymous": false,
      "inputs": [
        {
          "indexed": true,
          "internalType": "uint256",
          "name": "id",
          "type": "uint256"
        },
        {
          "indexed": true,
          "internalType": "string",
          "name": "url",
          "type": "string"
        },
        {
          "indexed": true,
          "internalType": "string",
          "name": "description",
          "type": "string"
        },
        {
          "indexed": false,
          "internalType": "uint256",
          "name": "tip",
          "type": "uint256"
        },
        {
          "indexed": false,
          "internalType": "address",
          "name": "author",
          "type": "address"
        }
      ],
      "name": "ImageTipped",
      "type": "event"
    },
    {
      "anonymous": false,
      "inputs": [
        {
          "indexed": true,
          "internalType": "uint256",
          "name": "id",
          "type": "uint256"
        },
        {
          "indexed": true,
          "internalType": "string",
          "name": "url",
          "type": "string"
        },
        {
          "indexed": true,
          "internalType": "string",
          "name": "description",
          "type": "string"
        },
        {
          "indexed": false,
          "internalType": "address",
          "name": "author",
          "type": "address"
        }
      ],
      "name": "ImageUploaded",
      "type": "event"
    },
    {
      "anonymous": false,
      "inputs": [
        {
          "indexed": true,
          "internalType": "address",
          "name": "previousOwner",
          "type": "address"
        },
        {
          "indexed": true,
          "internalType": "address",
          "name": "newOwner",
          "type": "address"
        }
      ],
      "name": "OwnershipTransferred",
      "type": "event"
    },
    {
      "anonymous": false,
      "inputs": [
        {
          "indexed": false,
          "internalType": "address",
          "name": "account",
          "type": "address"
        }
      ],
      "name": "Paused",
      "type": "event"
    },
    {
      "anonymous": false,
      "inputs": [
        {
          "indexed": false,
          "internalType": "address",
          "name": "account",
          "type": "address"
        }
      ],
      "name": "Unpaused",
      "type": "event"
    },
    {
      "inputs": [
        {
          "internalType": "uint256",
          "name": "",
          "type": "uint256"
        }
      ],
      "name": "idList",
      "outputs": [
        {
          "internalType": "uint256",
          "name": "",
          "type": "uint256"
        }
      ],
      "stateMutability": "view",
      "type": "function",
      "constant": true
    },
    {
      "inputs": [],
      "name": "idListLength",
      "outputs": [
        {
          "internalType": "uint256",
          "name": "",
          "type": "uint256"
        }
      ],
      "stateMutability": "view",
      "type": "function",
      "constant": true
    },
    {
      "inputs": [],
      "name": "imageIdCounter",
      "outputs": [
        {
          "internalType": "uint256",
          "name": "",
          "type": "uint256"
        }
      ],
      "stateMutability": "view",
      "type": "function",
      "constant": true
    },
    {
      "inputs": [
        {
          "internalType": "uint256",
          "name": "",
          "type": "uint256"
        }
      ],
      "name": "images",
      "outputs": [
        {
          "internalType": "uint256",
          "name": "id",
          "type": "uint256"
        },
        {
          "internalType": "string",
          "name": "url",
          "type": "string"
        },
        {
          "internalType": "string",
          "name": "description",
          "type": "string"
        },
        {
          "internalType": "uint256",
          "name": "totalTip",
          "type": "uint256"
        },
        {
          "internalType": "address payable",
          "name": "author",
          "type": "address"
        }
      ],
      "stateMutability": "view",
      "type": "function",
      "constant": true
    },
    {
      "inputs": [],
      "name": "owner",
      "outputs": [
        {
          "internalType": "address",
          "name": "",
          "type": "address"
        }
      ],
      "stateMutability": "view",
      "type": "function",
      "constant": true
    },
    {
      "inputs": [],
      "name": "paused",
      "outputs": [
        {
          "internalType": "bool",
          "name": "",
          "type": "bool"
        }
      ],
      "stateMutability": "view",
      "type": "function",
      "constant": true
    },
    {
      "inputs": [],
      "name": "renounceOwnership",
      "outputs": [],
      "stateMutability": "nonpayable",
      "type": "function"
    },
    {
      "inputs": [
        {
          "internalType": "address",
          "name": "newOwner",
          "type": "address"
        }
      ],
      "name": "transferOwnership",
      "outputs": [],
      "stateMutability": "nonpayable",
      "type": "function"
    },
    {
      "inputs": [
        {
          "internalType": "uint256",
          "name": "imageId",
          "type": "uint256"
        }
      ],
      "name": "getImage",
      "outputs": [
        {
          "internalType": "uint256",
          "name": "",
          "type": "uint256"
        },
        {
          "internalType": "string",
          "name": "",
          "type": "string"
        },
        {
          "internalType": "string",
          "name": "",
          "type": "string"
        },
        {
          "internalType": "uint256",
          "name": "",
          "type": "uint256"
        },
        {
          "internalType": "address",
          "name": "",
          "type": "address"
        }
      ],
      "stateMutability": "view",
      "type": "function",
      "constant": true
    },
    {
      "inputs": [],
      "name": "getImageCount",
      "outputs": [
        {
          "internalType": "uint256",
          "name": "",
          "type": "uint256"
        }
      ],
      "stateMutability": "view",
      "type": "function",
      "constant": true
    },
    {
      "inputs": [
        {
          "internalType": "string",
          "name": "_imgUrl",
          "type": "string"
        },
        {
          "internalType": "string",
          "name": "_imgDescription",
          "type": "string"
        }
      ],
      "name": "uploadImage",
      "outputs": [],
      "stateMutability": "nonpayable",
      "type": "function"
    },
    {
      "inputs": [
        {
          "internalType": "uint256",
          "name": "_id",
          "type": "uint256"
        }
      ],
      "name": "tipImageOwner",
      "outputs": [],
      "stateMutability": "payable",
      "type": "function",
      "payable": true
    },
    {
      "inputs": [],
      "name": "withdraw",
      "outputs": [],
      "stateMutability": "nonpayable",
      "type": "function"
    },
    {
      "inputs": [],
      "name": "pause",
      "outputs": [],
      "stateMutability": "nonpayable",
      "type": "function"
    },
    {
      "inputs": [],
      "name": "unpause",
      "outputs": [],
      "stateMutability": "nonpayable",
      "type": "function"
    }
  ],
  "bytecode": "0x60806040526000600255600060045534801561001a57600080fd5b5061003761002c61005d60201b60201c565b61006560201b60201c565b60008060146101000a81548160ff02191690831515021790555060018081905550610129565b600033905090565b60008060009054906101000a900473ffffffffffffffffffffffffffffffffffffffff169050816000806101000a81548173ffffffffffffffffffffffffffffffffffffffff021916908373ffffffffffffffffffffffffffffffffffffffff1602179055508173ffffffffffffffffffffffffffffffffffffffff168173ffffffffffffffffffffffffffffffffffffffff167f8be0079c531659141344cd1fd0a4f28419497f9722a3daafe3b4186f6b6457e060405160405180910390a35050565b6121ca80620001396000396000f3fe6080604052600436106100e85760003560e01c8063715018a61161008a5780638da5cb5b116100595780638da5cb5b146102a5578063a91b8314146102d0578063f2fde38b146102f9578063f97c44a914610322576100e8565b8063715018a61461021a5780638456cb591461023157806384856482146102485780638567ade814610289576100e8565b80635c975abb116100c65780635c975abb1461015c5780636313531f146101875780636386cd17146101c45780636d8e2508146101ef576100e8565b80632607aafa146100ed5780633ccfd60b1461012e5780633f4ba83a14610145575b600080fd5b3480156100f957600080fd5b50610114600480360381019061010f9190611667565b61034d565b60405161012595949392919061177d565b60405180910390f35b34801561013a57600080fd5b50610143610564565b005b34801561015157600080fd5b5061015a6106e4565b005b34801561016857600080fd5b5061017161076a565b60405161017e91906117f9565b60405180910390f35b34801561019357600080fd5b506101ae60048036038101906101a99190611667565b610780565b6040516101bb9190611814565b60405180910390f35b3480156101d057600080fd5b506101d96107a4565b6040516101e69190611814565b60405180910390f35b3480156101fb57600080fd5b506102046107aa565b6040516102119190611814565b60405180910390f35b34801561022657600080fd5b5061022f6107b0565b005b34801561023d57600080fd5b50610246610838565b005b34801561025457600080fd5b5061026f600480360381019061026a9190611667565b6108be565b604051610280959493929190611850565b60405180910390f35b6102a3600480360381019061029e9190611667565b610a24565b005b3480156102b157600080fd5b506102ba610ef7565b6040516102c791906118b1565b60405180910390f35b3480156102dc57600080fd5b506102f760048036038101906102f29190611a01565b610f20565b005b34801561030557600080fd5b50610320600480360381019061031b9190611aa5565b611268565b005b34801561032e57600080fd5b50610337611360565b6040516103449190611814565b60405180910390f35b60006060806000808560008111801561036857506002548111155b6103a7576040517f08c379a000000000000000000000000000000000000000000000000000000000815260040161039e90611b1e565b60405180910390fd5b600560008881526020019081526020016000206000015460056000898152602001908152602001600020600101600560008a8152602001908152602001600020600201600560008b815260200190815260200160002060030154600560008c815260200190815260200160002060040160009054906101000a900473ffffffffffffffffffffffffffffffffffffffff1683805461044490611b6d565b80601f016020809104026020016040519081016040528092919081815260200182805461047090611b6d565b80156104bd5780601f10610492576101008083540402835291602001916104bd565b820191906000526020600020905b8154815290600101906020018083116104a057829003601f168201915b505050505093508280546104d090611b6d565b80601f01602080910402602001604051908101604052809291908181526020018280546104fc90611b6d565b80156105495780601f1061051e57610100808354040283529160200191610549565b820191906000526020600020905b81548152906001019060200180831161052c57829003601f168201915b50505050509250955095509550955095505091939590929450565b61056c61136a565b73ffffffffffffffffffffffffffffffffffffffff1661058a610ef7565b73ffffffffffffffffffffffffffffffffffffffff16146105e0576040517f08c379a00000000000000000000000000000000000000000000000000000000081526004016105d790611beb565b60405180910390fd5b60026001541415610626576040517f08c379a000000000000000000000000000000000000000000000000000000000815260040161061d90611c57565b60405180910390fd5b600260018190555060003373ffffffffffffffffffffffffffffffffffffffff164760405161065490611ca8565b60006040518083038185875af1925050503d8060008114610691576040519150601f19603f3d011682016040523d82523d6000602084013e610696565b606091505b50509050806106da576040517f08c379a00000000000000000000000000000000000000000000000000000000081526004016106d190611d09565b60405180910390fd5b5060018081905550565b6106ec61136a565b73ffffffffffffffffffffffffffffffffffffffff1661070a610ef7565b73ffffffffffffffffffffffffffffffffffffffff1614610760576040517f08c379a000000000000000000000000000000000000000000000000000000000815260040161075790611beb565b60405180910390fd5b610768611372565b565b60008060149054906101000a900460ff16905090565b6003818154811061079057600080fd5b906000526020600020016000915090505481565b60045481565b60025481565b6107b861136a565b73ffffffffffffffffffffffffffffffffffffffff166107d6610ef7565b73ffffffffffffffffffffffffffffffffffffffff161461082c576040517f08c379a000000000000000000000000000000000000000000000000000000000815260040161082390611beb565b60405180910390fd5b6108366000611413565b565b61084061136a565b73ffffffffffffffffffffffffffffffffffffffff1661085e610ef7565b73ffffffffffffffffffffffffffffffffffffffff16146108b4576040517f08c379a00000000000000000000000000000000000000000000000000000000081526004016108ab90611beb565b60405180910390fd5b6108bc6114d7565b565b60056020528060005260406000206000915090508060000154908060010180546108e790611b6d565b80601f016020809104026020016040519081016040528092919081815260200182805461091390611b6d565b80156109605780601f1061093557610100808354040283529160200191610960565b820191906000526020600020905b81548152906001019060200180831161094357829003601f168201915b50505050509080600201805461097590611b6d565b80601f01602080910402602001604051908101604052809291908181526020018280546109a190611b6d565b80156109ee5780601f106109c3576101008083540402835291602001916109ee565b820191906000526020600020905b8154815290600101906020018083116109d157829003601f168201915b5050505050908060030154908060040160009054906101000a900473ffffffffffffffffffffffffffffffffffffffff16905085565b80600081118015610a3757506002548111155b610a76576040517f08c379a0000000000000000000000000000000000000000000000000000000008152600401610a6d90611b1e565b60405180910390fd5b610a7e61076a565b15610abe576040517f08c379a0000000000000000000000000000000000000000000000000000000008152600401610ab590611d75565b60405180910390fd5b60026001541415610b04576040517f08c379a0000000000000000000000000000000000000000000000000000000008152600401610afb90611c57565b60405180910390fd5b60026001819055506000600560008481526020019081526020016000206040518060a001604052908160008201548152602001600182018054610b4690611b6d565b80601f0160208091040260200160405190810160405280929190818152602001828054610b7290611b6d565b8015610bbf5780601f10610b9457610100808354040283529160200191610bbf565b820191906000526020600020905b815481529060010190602001808311610ba257829003601f168201915b50505050508152602001600282018054610bd890611b6d565b80601f0160208091040260200160405190810160405280929190818152602001828054610c0490611b6d565b8015610c515780601f10610c2657610100808354040283529160200191610c51565b820191906000526020600020905b815481529060010190602001808311610c3457829003601f168201915b50505050508152602001600382015481526020016004820160009054906101000a900473ffffffffffffffffffffffffffffffffffffffff1673ffffffffffffffffffffffffffffffffffffffff1673ffffffffffffffffffffffffffffffffffffffff1681525050905060008160800151905060008173ffffffffffffffffffffffffffffffffffffffff1634604051610ceb90611ca8565b60006040518083038185875af1925050503d8060008114610d28576040519150601f19603f3d011682016040523d82523d6000602084013e610d2d565b606091505b5050905080610d7257847ef8602fb4865bbff3a186ffb699fe651b7eebc84ff1c1459938a8a897c514d3338434604051610d6993929190611df4565b60405180910390a25b80610db2576040517f08c379a0000000000000000000000000000000000000000000000000000000008152600401610da990611d09565b60405180910390fd5b348360600151610dc29190611e5a565b8360600181815250508260056000878152602001908152602001600020600082015181600001556020820151816001019080519060200190610e0592919061157a565b506040820151816002019080519060200190610e2292919061157a565b506060820151816003015560808201518160040160006101000a81548173ffffffffffffffffffffffffffffffffffffffff021916908373ffffffffffffffffffffffffffffffffffffffff1602179055509050508260400151604051610e899190611eec565b60405180910390208360200151604051610ea39190611eec565b6040518091039020867f1be5317bca8d3f70dc1efe89958be71bff36cdca33fc00a6423e25eb2f1d492f866060015186604051610ee1929190611f03565b60405180910390a4505050600180819055505050565b60008060009054906101000a900473ffffffffffffffffffffffffffffffffffffffff16905090565b806000815111610f65576040517f08c379a0000000000000000000000000000000000000000000000000000000008152600401610f5c90611f9e565b60405180910390fd5b826000815111610faa576040517f08c379a0000000000000000000000000000000000000000000000000000000008152600401610fa19061200a565b60405180910390fd5b610fb261076a565b15610ff2576040517f08c379a0000000000000000000000000000000000000000000000000000000008152600401610fe990611d75565b60405180910390fd5b60026001541415611038576040517f08c379a000000000000000000000000000000000000000000000000000000000815260040161102f90611c57565b60405180910390fd5b6002600181905550600073ffffffffffffffffffffffffffffffffffffffff163373ffffffffffffffffffffffffffffffffffffffff1614156110b0576040517f08c379a00000000000000000000000000000000000000000000000000000000081526004016110a790612076565b60405180910390fd5b600060016002546110c19190611e5a565b905060006040518060a00160405280838152602001878152602001868152602001600081526020013373ffffffffffffffffffffffffffffffffffffffff16815250905081600281905550600382908060018154018082558091505060019003906000526020600020016000909190919091505560038054905060048190555080600560008360000151815260200190815260200160002060008201518160000155602082015181600101908051906020019061117f92919061157a565b50604082015181600201908051906020019061119c92919061157a565b506060820151816003015560808201518160040160006101000a81548173ffffffffffffffffffffffffffffffffffffffff021916908373ffffffffffffffffffffffffffffffffffffffff160217905550905050846040516111ff9190611eec565b6040518091039020866040516112159190611eec565b604051809103902082600001517fda2401c4b004175413cd23bba3c971b53de5c9d4a59698fc9cd5cc86d6592eed3360405161125191906118b1565b60405180910390a450506001808190555050505050565b61127061136a565b73ffffffffffffffffffffffffffffffffffffffff1661128e610ef7565b73ffffffffffffffffffffffffffffffffffffffff16146112e4576040517f08c379a00000000000000000000000000000000000000000000000000000000081526004016112db90611beb565b60405180910390fd5b600073ffffffffffffffffffffffffffffffffffffffff168173ffffffffffffffffffffffffffffffffffffffff161415611354576040517f08c379a000000000000000000000000000000000000000000000000000000000815260040161134b90612108565b60405180910390fd5b61135d81611413565b50565b6000600254905090565b600033905090565b61137a61076a565b6113b9576040517f08c379a00000000000000000000000000000000000000000000000000000000081526004016113b090612174565b60405180910390fd5b60008060146101000a81548160ff0219169083151502179055507f5db9ee0a495bf2e6ff9c91a7834c1ba4fdd244a5e8aa4e537bd38aeae4b073aa6113fc61136a565b60405161140991906118b1565b60405180910390a1565b60008060009054906101000a900473ffffffffffffffffffffffffffffffffffffffff169050816000806101000a81548173ffffffffffffffffffffffffffffffffffffffff021916908373ffffffffffffffffffffffffffffffffffffffff1602179055508173ffffffffffffffffffffffffffffffffffffffff168173ffffffffffffffffffffffffffffffffffffffff167f8be0079c531659141344cd1fd0a4f28419497f9722a3daafe3b4186f6b6457e060405160405180910390a35050565b6114df61076a565b1561151f576040517f08c379a000000000000000000000000000000000000000000000000000000000815260040161151690611d75565b60405180910390fd5b6001600060146101000a81548160ff0219169083151502179055507f62e78cea01bee320cd4e420270b5ea74000d11b0c9f74754ebdbfc544b05a25861156361136a565b60405161157091906118b1565b60405180910390a1565b82805461158690611b6d565b90600052602060002090601f0160209004810192826115a857600085556115ef565b82601f106115c157805160ff19168380011785556115ef565b828001600101855582156115ef579182015b828111156115ee5782518255916020019190600101906115d3565b5b5090506115fc9190611600565b5090565b5b80821115611619576000816000905550600101611601565b5090565b6000604051905090565b600080fd5b600080fd5b6000819050919050565b61164481611631565b811461164f57600080fd5b50565b6000813590506116618161163b565b92915050565b60006020828403121561167d5761167c611627565b5b600061168b84828501611652565b91505092915050565b61169d81611631565b82525050565b600081519050919050565b600082825260208201905092915050565b60005b838110156116dd5780820151818401526020810190506116c2565b838111156116ec576000848401525b50505050565b6000601f19601f8301169050919050565b600061170e826116a3565b61171881856116ae565b93506117288185602086016116bf565b611731816116f2565b840191505092915050565b600073ffffffffffffffffffffffffffffffffffffffff82169050919050565b60006117678261173c565b9050919050565b6117778161175c565b82525050565b600060a0820190506117926000830188611694565b81810360208301526117a48187611703565b905081810360408301526117b88186611703565b90506117c76060830185611694565b6117d4608083018461176e565b9695505050505050565b60008115159050919050565b6117f3816117de565b82525050565b600060208201905061180e60008301846117ea565b92915050565b60006020820190506118296000830184611694565b92915050565b600061183a8261173c565b9050919050565b61184a8161182f565b82525050565b600060a0820190506118656000830188611694565b81810360208301526118778187611703565b9050818103604083015261188b8186611703565b905061189a6060830185611694565b6118a76080830184611841565b9695505050505050565b60006020820190506118c6600083018461176e565b92915050565b600080fd5b600080fd5b7f4e487b7100000000000000000000000000000000000000000000000000000000600052604160045260246000fd5b61190e826116f2565b810181811067ffffffffffffffff8211171561192d5761192c6118d6565b5b80604052505050565b600061194061161d565b905061194c8282611905565b919050565b600067ffffffffffffffff82111561196c5761196b6118d6565b5b611975826116f2565b9050602081019050919050565b82818337600083830152505050565b60006119a461199f84611951565b611936565b9050828152602081018484840111156119c0576119bf6118d1565b5b6119cb848285611982565b509392505050565b600082601f8301126119e8576119e76118cc565b5b81356119f8848260208601611991565b91505092915050565b60008060408385031215611a1857611a17611627565b5b600083013567ffffffffffffffff811115611a3657611a3561162c565b5b611a42858286016119d3565b925050602083013567ffffffffffffffff811115611a6357611a6261162c565b5b611a6f858286016119d3565b9150509250929050565b611a828161175c565b8114611a8d57600080fd5b50565b600081359050611a9f81611a79565b92915050565b600060208284031215611abb57611aba611627565b5b6000611ac984828501611a90565b91505092915050565b7f496d61676520696420697320696e76616c69642e000000000000000000000000600082015250565b6000611b086014836116ae565b9150611b1382611ad2565b602082019050919050565b60006020820190508181036000830152611b3781611afb565b9050919050565b7f4e487b7100000000000000000000000000000000000000000000000000000000600052602260045260246000fd5b60006002820490506001821680611b8557607f821691505b60208210811415611b9957611b98611b3e565b5b50919050565b7f4f776e61626c653a2063616c6c6572206973206e6f7420746865206f776e6572600082015250565b6000611bd56020836116ae565b9150611be082611b9f565b602082019050919050565b60006020820190508181036000830152611c0481611bc8565b9050919050565b7f5265656e7472616e637947756172643a207265656e7472616e742063616c6c00600082015250565b6000611c41601f836116ae565b9150611c4c82611c0b565b602082019050919050565b60006020820190508181036000830152611c7081611c34565b9050919050565b600081905092915050565b50565b6000611c92600083611c77565b9150611c9d82611c82565b600082019050919050565b6000611cb382611c85565b9150819050919050565b7f4661696c656420746f2073656e64204574686572000000000000000000000000600082015250565b6000611cf36014836116ae565b9150611cfe82611cbd565b602082019050919050565b60006020820190508181036000830152611d2281611ce6565b9050919050565b7f5061757361626c653a2070617573656400000000000000000000000000000000600082015250565b6000611d5f6010836116ae565b9150611d6a82611d29565b602082019050919050565b60006020820190508181036000830152611d8e81611d52565b9050919050565b6000819050919050565b6000611dba611db5611db08461173c565b611d95565b61173c565b9050919050565b6000611dcc82611d9f565b9050919050565b6000611dde82611dc1565b9050919050565b611dee81611dd3565b82525050565b6000606082019050611e09600083018661176e565b611e166020830185611de5565b611e236040830184611694565b949350505050565b7f4e487b7100000000000000000000000000000000000000000000000000000000600052601160045260246000fd5b6000611e6582611631565b9150611e7083611631565b9250827fffffffffffffffffffffffffffffffffffffffffffffffffffffffffffffffff03821115611ea557611ea4611e2b565b5b828201905092915050565b600081905092915050565b6000611ec6826116a3565b611ed08185611eb0565b9350611ee08185602086016116bf565b80840191505092915050565b6000611ef88284611ebb565b915081905092915050565b6000604082019050611f186000830185611694565b611f256020830184611de5565b9392505050565b7f496d6167652073686f756c64206861766520736f6d652064657363726970746960008201527f6f6e2e0000000000000000000000000000000000000000000000000000000000602082015250565b6000611f886023836116ae565b9150611f9382611f2c565b604082019050919050565b60006020820190508181036000830152611fb781611f7b565b9050919050565b7f496d6167652055726c2073686f756c6420657869737400000000000000000000600082015250565b6000611ff46016836116ae565b9150611fff82611fbe565b602082019050919050565b6000602082019050818103600083015261202381611fe7565b9050919050565b7f53656e64657220616464726573732063616e6e6f742062652030000000000000600082015250565b6000612060601a836116ae565b915061206b8261202a565b602082019050919050565b6000602082019050818103600083015261208f81612053565b9050919050565b7f4f776e61626c653a206e6577206f776e657220697320746865207a65726f206160008201527f6464726573730000000000000000000000000000000000000000000000000000602082015250565b60006120f26026836116ae565b91506120fd82612096565b604082019050919050565b60006020820190508181036000830152612121816120e5565b9050919050565b7f5061757361626c653a206e6f7420706175736564000000000000000000000000600082015250565b600061215e6014836116ae565b915061216982612128565b602082019050919050565b6000602082019050818103600083015261218d81612151565b905091905056fea2646970667358221220182706284ddac54299cd6504463a909c69a4337807ab92ce3eac82c707022e7f64736f6c634300080a0033",
  "immutableReferences": {},
  "source": "// SPDX-License-Identifier: MIT\npragma solidity >=0.8.0;\n\nimport \"@openzeppelin/contracts/access/Ownable.sol\";\nimport \"@openzeppelin/contracts/security/Pausable.sol\";\nimport \"@openzeppelin/contracts/security/ReentrancyGuard.sol\";\n\n/// @title Contract for decentralized image sharing\n/// @author Abhishek Somani\n/// @notice Allows an user to tip an image\ncontract Depinterest is Ownable, Pausable, ReentrancyGuard {\n    /// @dev Tracks given image ids. Current value is the newest image id.\n    uint256 public imageIdCounter = 0;\n\n    /// @notice Image structure that captures all the necessary information about an image.\n    struct Image {\n        uint256 id;\n        string url;\n        string description;\n        uint256 totalTip;\n        address payable author;\n    }\n\n    /// @notice Checks if the id is valid or not\n    modifier isValidId(uint _id) {\n        // Make sure the id is valid\n        require(_id > 0 && _id <= imageIdCounter, \"Image id is invalid.\");\n        _;\n    }\n\n    /// @notice Checks if the image description is non-empty\n    modifier isValidDescription(string memory _imgDescription) {\n        // Make sure the image description exists\n        require(bytes(_imgDescription).length > 0, \"Image should have some description.\");\n        _;\n    }\n\n    /// @notice Checks if the image url is non-empty\n    modifier isValidUrl(string memory _imgUrl) {\n        // Make sure the image url exists\n        require(bytes(_imgUrl).length > 0, \"Image Url should exist\");\n        _;\n    }\n\n    /// @notice List of all iamge ids.\n    /// @dev Used as a helper when iterating available images in frontend client.\n    uint256[] public idList;\n\n    /// @notice idList length.\n    /// @dev Used as a helper when iterating available images in frontend client.\n    uint256 public idListLength = 0;\n\n    /// image id -> Image mapping\n    mapping(uint256 => Image) public images;\n\n    /// @notice Emitted when an image is uploaded\n    /// @param id Image id\n    /// @param url IPFS Url of the image\n    /// @param description Description of the image\n    /// @param author Author of the image with image id = id\n    event ImageUploaded(\n        uint256 indexed id,\n        string indexed url,\n        string indexed description,\n        address author\n    );\n\n    /// @notice Emitted when a new image is tipped\n    /// @param id Image id\n    /// @param url IPFS Url of the image\n    /// @param description Description of the image\n    /// @param tip Amount tipped to this image\n    /// @param author Author of the image with image id = id\n    event ImageTipped(\n        uint256 indexed id,\n        string indexed url,\n        string indexed description,\n        uint256 tip,\n        address author\n    );\n\n\n    /// @notice Emitted if the send money to the author call failed\n    /// @param id id of the image, can be used to view the image later\n    /// @param from Sender's address\n    /// @param to Author's address\n    /// @param amount Tip Amount\n    event ImageTipTransferFailed(\n        uint256 indexed id,\n        address from,\n        address to,\n        uint256 amount\n    );\n\n    constructor() {}\n\n    /// @notice Get information about an image\n    /// @param imageId image id\n    /// @return image information: image id, url, description, total tip and address of the author. \n    function getImage(uint256 imageId) public view isValidId(imageId) returns (\n        uint256,\n        string memory,\n        string memory,\n        uint256,\n        address\n    ){\n        return (\n            images[imageId].id,\n            images[imageId].url,\n            images[imageId].description,\n            images[imageId].totalTip,\n            images[imageId].author\n        );\n    }\n\n    /// @notice Get image count\n    /// @return image count\n    function getImageCount() public view returns (uint256) {\n        return imageIdCounter;\n    }\n\n    /// @notice Uploads an image to IPFS\n    /// @param _imgUrl Url of the image\n    /// @param _imgDescription Description of the image\n    function uploadImage(string memory _imgUrl, string memory _imgDescription) public\n        isValidDescription(_imgDescription)\n        isValidUrl(_imgUrl)\n        whenNotPaused \n        nonReentrant \n    {\n        // Make sure uploader address exists\n        require(msg.sender != address(0), \"Sender address cannot be 0\");\n\n        // Increment image id\n        uint256 newImageId = imageIdCounter + 1;\n\n        // Creates a new image\n        Image memory img = Image({\n            id: newImageId,\n            url: _imgUrl,\n            description: _imgDescription,\n            totalTip: 0,\n            author: payable(msg.sender)\n        });\n\n        // Counter is set to the new image id\n        imageIdCounter = newImageId;\n        // Push the new image id in the Id list\n        idList.push(newImageId);\n        // Update the length of the list\n        idListLength = idList.length;\n        // Assign the image in the images list\n        images[img.id] = img;\n        // Trigger an Image Uploaded event\n        emit ImageUploaded(img.id, _imgUrl, _imgDescription, msg.sender);\n    }\n\n    /// @notice Tips the image owner\n    /// @param _id Id of the image to be tipped\n    function tipImageOwner(uint256 _id) public payable isValidId(_id) whenNotPaused nonReentrant {\n        // Fetch the image\n        Image memory _image = images[_id];\n        // Fetch the author\n        address payable _author = _image.author;\n        \n        // Pay the author by sending them Ether. Using call because it's recommended in combination with re-entrancy guard\n        // Refer: https://solidity-by-example.org/sending-ether/\n        (bool sent, ) = _author.call{value: msg.value}(\"\");\n        if(!sent) {\n            emit ImageTipTransferFailed(_id, msg.sender, _author, msg.value);\n        }\n        // defending afainst https://swcregistry.io/docs/SWC-104\n        require(sent, \"Failed to send Ether\");\n        // Increment the tip amount\n        _image.totalTip = _image.totalTip + msg.value;\n        // Update the image\n        images[_id] = _image;\n        // Trigger an Image Tipped event\n        emit ImageTipped(_id, _image.url, _image.description, _image.totalTip, _author);\n    }\n\n    /// @notice Withdraw contract's balance to the owner's address\n    /// @dev The function will revert if the send wasn't successful\n    function withdraw() public onlyOwner nonReentrant {\n        (bool sent, ) = msg.sender.call{value: address(this).balance}(\"\");\n        require(sent, \"Failed to send Ether\");\n    }\n\n    /// @notice pause the contract -- the contract will start functioning in read-only mode.\n    /// @dev Implementing the circuit breaker pattern\n    function pause() public onlyOwner {\n        Pausable._pause();\n    }\n\n    /// @notice resume the contract for both reads and writes\n    /// @dev Implementing the circuit breaker pattern\n    function unpause() public onlyOwner {\n        Pausable._unpause();\n    }\n}\n",
  "sourcePath": "/Users/absomani/Documents/Blockchain/Ingram/contracts/Depinterest.sol",
  "compiler": {
    "name": "solc",
    "version": "0.8.10+commit.fc410830.Emscripten.clang"
  },
  "schemaVersion": "3.4.3",
  "updatedAt": "2021-11-23T10:59:50.121Z",
  "networkType": "ethereum",
  "devdoc": {
    "author": "Abhishek Somani",
    "events": {
      "ImageTipTransferFailed(uint256,address,address,uint256)": {
        "params": {
          "amount": "Tip Amount",
          "from": "Sender's address",
          "id": "id of the image, can be used to view the image later",
          "to": "Author's address"
        }
      },
      "ImageTipped(uint256,string,string,uint256,address)": {
        "params": {
          "author": "Author of the image with image id = id",
          "description": "Description of the image",
          "id": "Image id",
          "tip": "Amount tipped to this image",
          "url": "IPFS Url of the image"
        }
      },
      "ImageUploaded(uint256,string,string,address)": {
        "params": {
          "author": "Author of the image with image id = id",
          "description": "Description of the image",
          "id": "Image id",
          "url": "IPFS Url of the image"
        }
      }
    },
    "kind": "dev",
    "methods": {
      "getImage(uint256)": {
        "params": {
          "imageId": "image id"
        },
        "returns": {
          "_0": "image information: image id, url, description, total tip and address of the author. "
        }
      },
      "getImageCount()": {
        "returns": {
          "_0": "image count"
        }
      },
      "owner()": {
        "details": "Returns the address of the current owner."
      },
      "pause()": {
        "details": "Implementing the circuit breaker pattern"
      },
      "paused()": {
        "details": "Returns true if the contract is paused, and false otherwise."
      },
      "renounceOwnership()": {
        "details": "Leaves the contract without owner. It will not be possible to call `onlyOwner` functions anymore. Can only be called by the current owner. NOTE: Renouncing ownership will leave the contract without an owner, thereby removing any functionality that is only available to the owner."
      },
      "tipImageOwner(uint256)": {
        "params": {
          "_id": "Id of the image to be tipped"
        }
      },
      "transferOwnership(address)": {
        "details": "Transfers ownership of the contract to a new account (`newOwner`). Can only be called by the current owner."
      },
      "unpause()": {
        "details": "Implementing the circuit breaker pattern"
      },
      "uploadImage(string,string)": {
        "params": {
          "_imgDescription": "Description of the image",
          "_imgUrl": "Url of the image"
        }
      },
      "withdraw()": {
        "details": "The function will revert if the send wasn't successful"
      }
    },
    "stateVariables": {
      "idList": {
        "details": "Used as a helper when iterating available images in frontend client."
      },
      "idListLength": {
        "details": "Used as a helper when iterating available images in frontend client."
      },
      "imageIdCounter": {
        "details": "Tracks given image ids. Current value is the newest image id."
      }
    },
    "title": "Contract for decentralized image sharing",
    "version": 1
  },
  "userdoc": {
    "events": {
      "ImageTipTransferFailed(uint256,address,address,uint256)": {
        "notice": "Emitted if the send money to the author call failed"
      },
      "ImageTipped(uint256,string,string,uint256,address)": {
        "notice": "Emitted when a new image is tipped"
      },
      "ImageUploaded(uint256,string,string,address)": {
        "notice": "Emitted when an image is uploaded"
      }
    },
    "kind": "user",
    "methods": {
      "getImage(uint256)": {
        "notice": "Get information about an image"
      },
      "getImageCount()": {
        "notice": "Get image count"
      },
      "idList(uint256)": {
        "notice": "List of all iamge ids."
      },
      "idListLength()": {
        "notice": "idList length."
      },
      "images(uint256)": {
        "notice": "image id -> Image mapping"
      },
      "pause()": {
        "notice": "pause the contract -- the contract will start functioning in read-only mode."
      },
      "tipImageOwner(uint256)": {
        "notice": "Tips the image owner"
      },
      "unpause()": {
        "notice": "resume the contract for both reads and writes"
      },
      "uploadImage(string,string)": {
        "notice": "Uploads an image to IPFS"
      },
      "withdraw()": {
        "notice": "Withdraw contract's balance to the owner's address"
      }
    },
    "notice": "Allows an user to tip an image",
    "version": 1
  }
}